:020000040800F2
:10000000F8150020450100084D4A0008691900084C
:100010004B4A0008CD0F000879600008000000007E
:10002000000000000000000000000000B34F0008C6
:10003000CF0F0008000000000D4B0008D55000084D
:100040005F0100085F0100085F0100085F01000810
:100050005F0100085F010008D10F00085F01000880
:10006000091000087D100008B51000085F010008A5
:100070005F0100085F0100085F0100085F010008E0
:100080005F0100085F0100085F0100085F010008D0
:100090005F0100085F0100085F0100085F010008C0
:1000A0005F0100085F0100085F0100085F010008B0
:1000B0005F01000811520008D15200085F010008DA
:1000C0005F0100085F0100085F0100085F01000890
:1000D0005F010008615A0008955C00085D5E000839
:1000E0005F0100085F0100085F0100085F01000870
:1000F0005F0100085F0100085F0100085F01000860
:100100005F0100085F0100088D5300085F010008CF
:1001100029590008C9590008155400085F01000852
:100120005F0100085F0100085F0100085F0100082F
:10013000DFF80CD000F06EFD00480047A5880008ED
:10014000F81500200648804706480047FEE7FEE70E
:10015000FEE7FEE7FEE7FEE7FEE7FEE7FEE7FEE777
:10016000D9500008310100082DE9F0410024061B98
:10017000254671F1000605DA01240027D0EB0700BF
:1001800067EB0101161E73F1000605DA0027D2EBBA
:100190000702012567EB030300F0BEFB86460E460F
:1001A00017469C46AC4204D00025D0EB050E65EB0B
:1001B000010624B10020D2EB000760EB030C70466F
:1001C00031463A466346BDE8F08140EA01039B07A9
:1001D00003D009E008C9121F08C0042AFAD203E0BC
:1001E00011F8013B00F8013B521EF9D27047D2B220
:1001F00001E000F8012B491EFBD270470022F6E710
:1002000010B513460A4604461946FFF7F0FF20468C
:1002100010BD421C10F8011B0029FBD1801A704749
:1002200030B504460020034600E05B1C934203D235
:10023000E05CCD5C401BF8D030BDF0B480EA010238
:10024000D40F4200B2EB410F02D2024608461146DB
:100250004A0042D0C30DDDB2C1F3C752AD1A202D02
:1002600035DAC1F3160141F4000204B15242C5F17E
:10027000200602FA06F12A411044B3EBD05F23D0E6
:10028000C4B1012DA0EBC35009DCF0BC4FF000421B
:1002900002EAC352DBB200F5000000F0A8BB400048
:1002A00000F1807000EBC350A0F1807040EAD17083
:1002B000490009E0490841EAC071A0EBC35000F5CC
:1002C0000000400800EBC350F0BC00F087BB614267
:1002D000012202EB4101001BF6E7F0BC704781F000
:1002E0000041AAE780F00040A7E780EA010210B5CC
:1002F00002F00043400022D04A001FD0010E01EB63
:100300001261C0F35600C2F3560240F4000042F4FA
:100310000002A0FB022000047F39140400D0401C1E
:1003200050EA124001D44000491EC2B20C0604EB50
:10033000D010401C4008802A02D003E0002010BDED
:1003400020F00100002900DA0020184310BD30B46D
:1003500080EA010202F0004530F0004221F0004046
:1003600013D090B1C30DD40DC2F31601C0F3160023
:10037000E41A41F4000140F400027D34914201D3BB
:10038000641C00E04900002C02DA30BC00207047F9
:100390004FF400000023914201D3891A034340081F
:1003A0004FEA4101F7D151B1914202D14FF00041E2
:1003B00005E002D24FF0010101E06FF0010103EB13
:1003C000C450284430BC00F009BB420005D0C0F343
:1003D000C7525242914201DC0020704700EBC150ED
:1003E00070472DE9FE4F804681EA0300C00F0C469E
:1003F000009021F0004123F00045B8EB0200A94134
:1004000005D24046214690461C460B46024623F044
:100410000040104347D0270DC7F30A00C3F30A5129
:100420000290401A019040286BDAC3F3130040F4A5
:10043000801B0098924620B10023D2EB030A63EBA5
:100440000B0B01985946C0F14002504600F095FA56
:1004500006460D4650465946019A00F0ADFA10EB9B
:1004600008006141002487EA115284EAE7731A43C5
:1004700040D0009A62B3019A012A4FEA075215DC74
:10048000001B61EB02014FF0004202EA0752CDE986
:100490000042001C41F5801132462B4600F0E4FA80
:1004A00003B0BDE8F08F40462146F9E7001B61EB41
:1004B0000201001C41F5801300185B412018A2F5D1
:1004C000001747EB030140EAD570B6196D4111E002
:1004D0006D084FEA360645EAC0754FEA0752001B21
:1004E00061EB0201001C41F5801149084FEA300020
:1004F0000019514132462B4603B0BDE8F04F00F0E1
:10050000A4BA0098012240000023D0EB020263EB62
:10051000E073009821464FEAE074B8EB000061EB0D
:100520000401E9E783F000435BE781F0004158E70D
:100530002DE9FE4F81EA030404F0004421F000415C
:1005400000944FF0000B23F0004350EA01045ED00A
:1005500052EA03045BD0C3F30A54C1F30A552C4496
:10056000A4F2F3340194A0FB0254C1F3130141F44B
:100570008011C3F3130343F4801301FB024400FB17
:10058000034E840A970A44EA815447EA8357A4FB3E
:10059000076802958D0A05FB07854FEA932C04FB3B
:1005A0000C542705029D4FEA065847EA1637B5EB6B
:1005B00008056EEB070C870E920E47EA811742EA98
:1005C0008312A7FB0201B6EB0B0164EB00042B0DB9
:1005D00043EA0C335E1844EB1C50DA465146E7FB05
:1005E0000201C5F313044FEA0B3343EA14534FEAF5
:1005F0000432019C43EA0603A4F10C040294009C1B
:10060000CDE900B400F030FA03B0BDE8F08F00206F
:100610000146F9E72DE9F04D81EA030404F0004BAF
:1006200021F0004514464FF0000A23F0004150EA43
:10063000050220D054EA01021DD0C5F30A57024634
:10064000C5F31303C1F31300C1F30A5640F4801538
:1006500043F48013A7EB0608101BD64608F2FD38BA
:1006600073EB050002D308F1010801E092185B4129
:10067000B8F1000F03DA00200146BDE8F08D00203C
:100680004FF48011064684460EE0171B73EB0507F6
:1006900005D3121B63EB050306434CEA010C490822
:1006A0004FEA300092185B4150EA0107EDD152EA5F
:1006B000030012D082EA040083EA0501084305D052
:1006C000101BAB4106D20122002306E000224FF0AE
:1006D000004302E06FF0010253101AEB06004CEBEE
:1006E000085110EB0A0041EB0B01BDE8F04D00F0A2
:1006F000ACB970B521F0004303430CD0C1F30A55E7
:100700000024D5EB040564EB0403D617AD1AB341FE
:1007100002DB0020014670BD201841EB025170BD84
:10072000C10F80EAE0700844CA079623002100F058
:100730005EB996230022114600F059B90EB5C10FDB
:1007400080EAE0700844CA07002140F233438DE894
:100750000E000A460B4600F087F903B000BD0EB547
:1007600040F2334102910021CDE900110A460B46C7
:1007700000F07AF903B000BD00F0004220F0004024
:10078000C10DC0F3160040F400007F2901DA0020FB
:100790007047962903DCC1F19601C84001E0963903
:1007A0008840002AF4D04042704720F00040C10D3C
:1007B000C0F3160040F400007F2901DA00207047E2
:1007C000962903DCC1F19601C840704796398840EC
:1007D0007047C1F30A5210B5C1F3130140F2FF3361
:1007E00041F480119A4201DA002010BD40F23343F7
:1007F0009A42A2F2334203DC524200F0CDF810BD1F
:10080000904010BD00F0004230F000400AD0C10D11
:1008100001F56071C0F3160042EA0151C2084007B9
:1008200011437047002001467047000030B5041E98
:1008300071F1000404DB4FF00044404264EB01011D
:10084000141E73F1000405DB1C464FF000435242B6
:1008500063EB04038B4208BF824230BD30B5041EF7
:1008600071F1000404DB4FF00044404264EB0101ED
:10087000141E73F1000405DB1C464FF00043524286
:1008800063EB0403994208BF904230BD01F000437E
:1008900030B421F0004150EA010206D00A0DA2F561
:1008A0006072C1F31301002A02DC30BC00207047E3
:1008B000440F44EAC104C100E01830BC00EBC25050
:1008C00000F08CB8002801DBC0F10040002901DBFA
:1008D000C1F1004181427047002801DBC0F10040B6
:1008E000002901DBC1F100418842704730B50B4659
:1008F000014600202022012409E021FA02F59D4250
:1009000005D303FA02F5491B04FA02F52844151E23
:10091000A2F10102F1DC30BD2DE9F05F05460020B7
:1009200092469B4688460646814640241BE0284660
:1009300041464746224600F02FF853465A46C01A11
:10094000914110D311461846224600F016F82D1A90
:1009500067EB01084F4622460120002100F00DF808
:1009600017EB00094E41201EA4F10104DFDC4846CC
:1009700031462A464346BDE8F09F202A04DB203A50
:1009800000FA02F1002070479140C2F1200320FAE2
:1009900003F3194390407047202A04DB203A21FAE0
:1009A00002F00021704721FA02F3D040C2F1200288
:1009B0009140084319467047202A06DBCB17203A9E
:1009C00041FA02F043EAE07306E041FA02F3D04054
:1009D000C2F1200291400843194670470029A8BF80
:1009E0007047401C490008BF20F00100704710B458
:1009F000B0FA80FC00FA0CF050EA010404BF10BC0D
:100A0000704749B1CCF1200421FA04F411FA0CF139
:100A100018BF012121430843A3EB0C01CB1D4FEA72
:100A200000614FEA102042BF002010BC704700EB6D
:100A3000C35010440029A4BF10BC7047401C49009B
:100A400008BF20F0010010BC704710B5141E73F1F0
:100A5000000408DA401C41F1000192185B411A437E
:100A600001D120F0010010BD2DE9F04D92469B46CA
:100A700011B1B1FA81F202E0B0FA80F22032904670
:100A8000FFF77BFF04460F4640EA0A0041EA0B01EC
:100A900053465A46084313D0114653EA010019D071
:100AA000C8F140025046FFF777FF05460E46504614
:100AB00059464246FFF761FF084305D0012004E094
:100AC00020463946BDE8F08D0020054346EAE07631
:100AD0002C4337430A986305E40AA0EB0800002280
:100AE000FD0A44EA47540A3002D500200146E9E7EE
:100AF000010510196941DDE9084500196941BDE8A2
:100B0000F04DA2E72DE9F04D00231A461B1A8A4149
:100B100003DB00200146BDE8F08DC1F30A52C1F3AA
:100B2000130141F480154FF0000BD10702D10018DA
:100B30006D41521E0027044640F2FF11384601EB7A
:100B4000620A3E468046024600204FF48011FFF7BD
:100B500023FFC2197141BB1846EB0100B4EB030C33
:100B600075EB000C04D3E41A65EB000517460E463E
:100B7000241908F101006D4180463428E3DDF9199C
:100B800046EB0600091BA84103D24FF0FF32134683
:100B900001E0002213461BEB070046EB0A51BDE8BB
:100BA000F04DFFF752BF70B5C1F30A5201F0004596
:100BB0000024C1F3130140F2FF3341F480119A4243
:100BC00001DA002070BD40F233439A42A2F2334270
:100BD00003DC5242FFF7E0FE00E090402C43F1D0EE
:100BE000404270BDC1F30A52C1F3130140F2FF331A
:100BF00041F480119A4202DA00200146704740F227
:100C000033439A42A2F2334202DC5242FFF7C4BE9F
:100C1000FFF7B3BE064C074D06E0E06840F0010365
:100C200094E8070098471034AC42F6D3FFF784FAF3
:100C300024DC000844DC000870B58C1810F8015B57
:100C400015F0070301D110F8013B2A1106D110F865
:100C5000012B03E010F8016B01F8016B5B1EF9D169
:100C60002B0705D40023521E0DD401F8013BFAE7EF
:100C700010F8013BCB1A921C03E013F8015B01F85A
:100C8000015B521EF9D5A142D8D3002070BD0029C6
:100C9000816802D041F0010101E021F00101816091
:100CA000704700000D4910B5884202D1012144155A
:100CB0000AE00B49884202D10121041504E00949E8
:100CC00088420AD10121CC03204603F05BFF204675
:100CD000BDE81040002103F055BF10BD00240140C5
:100CE00000280140003C01403EB50A21012000F0EF
:100CF0006DFC0446024603A1684605F0CFF9204684
:100D00003EBD0000464C41472564200A000000001B
:100D1000014600208968490700D501207047C06C52
:100D200080B270470246002012680A4200D00120BB
:100D30007047014600208968090700D501207047E7
:100D400010B542680E4B0C791A400B6842EA042237
:100D50001343436082680B4B1A40D1E9024323439B
:100D60004C7942EA440213438360C26A097C22F44C
:100D70007002491EC9B242EA0151C16210BD0000B1
:100D8000FFFEF0FFFDF7F1FFF0B52649002687B022
:100D900009680546012903D0B9B3022007B0F0BDA8
:100DA0001024CDE9004650211E2004232A4603F0DA
:100DB00010F82846FFF7D3FC4FF066321A4BFFF7C6
:100DC000B7FBFFF763FD0546FFF7EFFC87B2CDE900
:100DD000004664211E2001233A4602F0FAFF3846FD
:100DE000FFF7A7FC2946FFF77DFA1049FFF77DFAC8
:100DF000FFF7DBFC02468020CDE9004078212E2061
:100E0000032302F0E6FF3846C8E7FFE72A4608A1B9
:100E100002A805F043F902A800F09CFD07484670BF
:100E20002846BBE71C00002066664A3F00007A4463
:100E3000414443202564200A000000001C070020D4
:100E400070B5072609290AD9C568A1F10A0404EB7F
:100E50004404A640B543A3401D43C56007E00569AF
:100E600001EB4104A640B543A3401D4305611F2388
:100E7000072A09D2446B521E02EB820293409C4324
:100E800091400C43446370BD0D2A09D2046BD21FFC
:100E900002EB820293409C4391400C43046370BD7B
:100EA000C46A0D3A02EB820293409C4391400C438A
:100EB000C46270BD816841F00801816070470029FB
:100EC000816802D041F4A00101E021F4A001816019
:100ED0007047816841F00401816070472DE9F04757
:100EE0008146DDE90970089E1C469246884686F0D8
:100EF0000045FFF715FC034600222146504604F04A
:100F0000ADF804463846FFF70BFC03460022414685
:100F1000484604F0A3F82146FFF78FF9044631460E
:100F2000FFF7DAFC00D8344628462146FFF7D4FC08
:100F300000D82C462046BDE8F047014909F0A6B983
:100F40000000F04130B587B001214FF4017003F08B
:100F50000DFE4FF4004003F0DBFD0220ADF814005D
:100F600000248DF8174005A9164800F039F9164DF0
:100F70002846FFF797FE4FF46020CDE902040120D8
:100F80008DF804408DF8100000948DF805406946F6
:100F90002846FFF7D5FE01212846FFF778FE2846B0
:100FA000FFF788FF2846FFF7C4FE0028FAD128463D
:100FB000FFF78FFF2846FFF7ABFE0028FAD107B0F6
:100FC00030BD00000008014000240140FEE77047EA
:100FD00010B50A2006F0C8FB0121094800F07AF993
:100FE000012806D10749D1F8A00138B10020C1F885
:100FF000A001BDE81040012000F078B80120F6E71C
:1010000000080140008021422DE9F0470A2006F047
:10101000ABFB0026164C174F4FF4FA6A4FF001084D
:1010200040F6B835DFF8509017E0504606F0B6FBB2
:10103000C4F88061C4F888613E80C4F88481284681
:1010400006F0ACFBC4F88461284606F0A7FB38889C
:10105000401C80B238806428EFD30421484600F059
:1010600039F90128E1D0BDE8F047042000F03EB88E
:1010700000802342320000200014014010B50A20F5
:1010800006F072FB0821094800F024F930B908493C
:10109000D1F8940138B10020C1F89401BDE81040A6
:1010A000082000F023B80120F6E7000000180140F6
:1010B0000000234210B50A2006F056FB1021094813
:1010C00000F008F930B90849D1F8940138B100208E
:1010D000C1F89401BDE81040102000F007B80120CD
:1010E000F6E7000000180140008021420149086035
:1010F00070470000140401408000A0F1C0400029A6
:10110000016802D041F0010101E0024A1140016092
:1011100070470000FEFF0F0010B5D0E90112114327
:10112000D0E903231A4311434269114382691143F1
:10113000C2691143026A1143426A1143826A114330
:10114000C26A1143026B114302689200A2F1C042CD
:1011500011608168082907D101688900A1F1C041A7
:101160000A6842F040020A60416BD1E9002342EA7A
:1011700003128B688C891B0243EA04431A430B8ACF
:1011800042EA03520B7D896942EA03620A4301681D
:101190008900A1F1C0414A60C16AB1F5804F08D011
:1011A00000686FF070418000A0F1C040C0F80411E9
:1011B00010BD816BD1E9002342EA03128B680C8ACF
:1011C0001B0243EA04531A430B7D896942EA036216
:1011D00000680A438000A0F1C040C0F8042110BD9F
:1011E000F0B5CC78002204F00F03E40601D58C782A
:1011F00023430C784FF00F0C14F0FF0F4FF0010E4B
:101200001BD005680E880EFA02F42640A64210D1C3
:1012100096000CFA06F725EA070703FA06F5CE78DA
:101220003D43282E02D0482E02D002E0446100E067
:101230000461521C082AE5D305600A88FF2A1CD9DC
:101240004468002202F108060EFA06F50E882E40C8
:10125000AE420ED196000CFA06F7BC4303FA06F72D
:10126000CE783C43282E00D14561CE78482E00D15F
:101270000561521C082AE5D34460F0BDF0B5144C5A
:10128000002801DAE36900E06368450D2E0185B2AC
:10129000C0F30157B540C0F30342032F05D0C60287
:1012A0000AD503269640B34307E023F070626368D3
:1012B00023F07063636002E0AB4343F0706201B1FE
:1012C0002A43002801DAE261F0BD6260F0BD00004F
:1012D000000001400246002092680A4200D001202E
:1012E0007047416170470161704770B50446D1E9AC
:1012F00000508E68AEB00146684600F03FF82946BF
:1013000009A800F095F8314612A800F0EBF809AAF8
:1013100069461BA803F06CFB12AA1BA924A803F0C2
:1013200067FB002124A850F8212044F82120491C03
:101330000829F8DD2EB070BD00EB40000844001F06
:10134000704770B50E46044611460846FEF7CDFFBD
:10135000054631460846FEF7C8FF064621460846C0
:10136000FEF7C3FF3146FEF768FF2946FEF765FF2B
:10137000FFF748FABDE8704008F062BF2DE9F04180
:1013800004460846FFF73EFA274A284BFFF742F982
:101390000F46064606F07CF9FFF778FA0546304618
:1013A000394608F0FDFEFFF771FA024601210846B2
:1013B000FFF7C2FF4FF07E5144F8201002210120B8
:1013C000FFF7BAFF002344F8203003210120FFF784
:1013D000B3FF44F8203001210220FFF7ADFF44F8AD
:1013E000203002210846FFF7A7FF44F8205082F082
:1013F000004603210220FFF79FFF44F820600121EF
:101400000320FFF799FF44F8203002210320FFF763
:1014100093FF44F8202003210846FFF78DFF44F88E
:101420002050BDE8F0810000FBEB1516DCA54C4018
:101430002DE9F04104460846FFF7E4F9274A284B16
:10144000FFF7E8F80F46064606F022F9FFF71EFA06
:1014500005463046394608F0A3FEFFF717FA024664
:1014600001210846FFF768FF44F8205002210120BF
:10147000FFF762FF002344F8203003210120FFF72B
:101480005BFF44F8202001210220FFF755FF44F8BC
:10149000203002210846FFF74FFF4FF07E5144F8FD
:1014A000201003210220FFF747FF44F8203082F08C
:1014B000004201210320FFF73FFF44F820200221D2
:1014C0000320FFF739FF44F8203003210846FFF7D7
:1014D00033FF44F82050BDE8F0810000FBEB151607
:1014E000DCA54C402DE9F04104460846FFF78AF997
:1014F000274A284BFFF78EF80F46064606F0C8F835
:10150000FFF7C4F905463046394608F049FEFFF7B3
:10151000BDF9024601210846FFF70EFF44F82050AE
:1015200082F0004302210120FFF706FF44F820303B
:1015300003210120FFF700FF002344F820300121A0
:101540000220FFF7F9FE44F8202002210846FFF7A9
:10155000F3FE44F8205003210220FFF7EDFE44F88B
:10156000203001210320FFF7E7FE44F8203002215C
:101570000320FFF7E1FE44F8203003210846FFF77F
:10158000DBFE4FF07E5144F82010BDE8F0810000F2
:10159000FBEB1516DCA54C4010B50B4C01460723A0
:1015A00001222046FFF74CFC01212046FFF787FC73
:1015B00002212046FFF7B6FB0028F9D02046BDE8FF
:1015C0001040FFF7ACBB0000002401402DE9F041C2
:1015D00000250E4607462C4608E03846FFF7DCFF9C
:1015E0000544052006F0C0F8641CE4B2B442F4D30C
:1015F000B5FBF6F080B2BDE8F0812DE9F04F04466E
:10160000D1E900B087B0002201908868009001986D
:10161000594680F000400590FFF793FE8A460199F5
:1016200080460846FEF761FE05468BF000405946AD
:10163000FEF75BFE2946FEF752FE05460490DDE903
:101640000010FEF752FE0646039058460099FEF73A
:101650004CFE2A4631460290FFF773FE8946DDE9CB
:10166000002107465846FFF76CFE05460E460598D2
:10167000FFF7C8F842465346FEF7CCFFFFF706F9DE
:10168000024601210846FFF757FE44F8202058463D
:10169000FFF7B8F88346424653460591FEF7BAFF76
:1016A000FFF7F4F8024601210220FFF745FE44F857
:1016B00020200020424653460146FEF7ABFFFFF7CD
:1016C000E5F8024601210320FFF736FE44F820200A
:1016D0000298FFF797F84B463A46FEF79BFFFFF755
:1016E000D5F8024602210120FFF726FE44F820200B
:1016F0000398FFF787F84B463A46FEF78BFFFFF754
:10170000C5F8024602210846FFF716FE44F82020DD
:101710000498FFF777F84B463A46FEF77BFFFFF752
:10172000B5F8024602210320FFF706FE44F8202008
:1017300058462A4633460599FEF76CFFFFF7A6F890
:10174000024603210120FFF7F7FD44F8202001980D
:10175000FFF758F82A463346FEF75CFFFFF796F886
:10176000024603210220FFF7E7FD44F820200098FD
:10177000FFF748F82A463346FEF74CFFFFF786F896
:10178000024603210846FFF7D7FD44F8202007B0A2
:10179000BDE8F08F0C4810B50021017041704FF486
:1017A000165004F0DBFA09A000F0D4F80A49002032
:1017B000401C8842FCD309A000F0CCF8BDE81040E2
:1017C00009A004F05BBC00005000002041542B43F2
:1017D0004C454152000000005034030041542B524C
:1017E0004F4C453D53000000C0B6D1C0C4A3BFE973
:1017F00048432D3038202020202020202020C5E400
:10180000D6C3CDEAB3C90D0A000000002DE9F047A8
:101810004FF4FA64204605F0C1FF1B4D0026C5F8C1
:101820008061C5F88861DFF86480A146012708F56A
:10183000837A0024484605F0B1FFC5F8847108F0AA
:101840002DFE05F0ABFFC5F8846108F027FE05F01A
:10185000A5FF641CA4B2642CECD398F804014446A0
:101860000128E6D1504600F075F884F8046194F838
:1018700006013528DDD106A000F06CF888F801607B
:10188000C5F88071BDE8F087008023421C07002066
:101890000A5072657373203520454E440A000000DB
:1018A0002DE9F0474FF4FA64204605F077FF1B4D11
:1018B0000026C5F880610127C5F88871DFF86080CF
:1018C000A14608F5837A0024484605F067FFC5F86D
:1018D000847108F0E3FD05F061FFC5F8846108F04C
:1018E000DDFD05F05BFF641CA4B2642CECD398F81A
:1018F000040144460128E6D1504600F02BF884F854
:10190000046194F806013628DDD106A000F022F823
:1019100088F80160C5F88071BDE8F0870080234237
:101920001C0700200A5072657373203620454E4410
:101930000A00000010B5064A141D05E013885B0676
:10194000FCD510F8013B2380491E89B2F6D210BDA8
:101950000044004010B50446FEF75BFC81B220460F
:10196000BDE81040FFF7E6BFFEE7000008B5012123
:10197000202003F0FBF80420ADF8000028208DF8AB
:10198000030069460148FFF72BFC08BD0014014025
:1019900008B50121442003F0E9F81820ADF8000053
:1019A00048208DF8030069460648FFF719FC01201E
:1019B000ADF8000028208DF8030069460248FFF7C3
:1019C0000FFC08BD001801400008014070B509492E
:1019D0000646002408884D8821464543204602F0EB
:1019E000D3F802F039FA044801E00680641CAC42E6
:1019F000FBD370BDFC0100200008006C2DE9F04F06
:101A00002B4B2C27194698712B2589884FF4305A77
:101A10004FF4285B4FF4487441F6631E2A264FF0BA
:101A2000F00845F210594FF4A07C4FF4F072C8B1A1
:101A3000A3F800C0A3F80280494533D1A3F808A059
:101A4000A3F80AB0280298811C805A80A1F5A6400C
:101A5000103802D11A80A3F802C0BDE8F04F002070
:101A600001F0F0BFA3F80080A3F802C0494507D1F8
:101A7000A3F808A0A3F80AB04FF42C50988104E012
:101A800071451F8104D15D819E811A805C8001E0D7
:101A90005E819D81A1F5A6401038DED1A3F800C07B
:101AA0005A80DAE71F815E8171459D81CCD0CDE7F8
:101AB000FC0100202DE9F047DFF89C9092464A4651
:101AC000B9F80460DFF894C093890C0A050A5289BA
:101AD000A6F5A0480CF10207B8F5A2680CD0A6F54F
:101AE000C858B8F1630816D0ACF800203D80C0B2E9
:101AF0003880ACF8003024E0ACF800203D80521C67
:101B0000ACF80020C0B23880ACF800303C805B1CE0
:101B1000ACF8003016E099F8066026B9B9F8005024
:101B2000281A401E80B2ACF80020020A3A80C5B2E2
:101B30003D803A80C0B23880ACF800303C80C8B2FA
:101B400038803C80C8B23880B9F80800ACF8000092
:101B5000A7F800A0BDE8F087FC010020FE07006C9C
:101B60002DE9F0438146A2EB0900401C1F460C46BC
:101B700085B2DFF83080079E0FE02146484602F02C
:101B800003F802F069F90020414602E00E80401C93
:101B900080B2A842FAD3641CA4B2BC42EDD9BDE81D
:101BA000F08300000008006C2DE9F04F01219FB088
:101BB000080202F0B7FF01214FF4B47002F0D6FF23
:101BC0000120ADF83C0010208DF83F0003248DF873
:101BD0003E400FA9FE48FFF703FB4CF23370ADF80F
:101BE0003C0018258DF83F508DF83E400FA9F9486C
:101BF000FFF7F6FA4FF68070ADF83C008DF83F50D5
:101C00008DF83E400FA9F448FFF7EAFA41F20100CF
:101C1000ADF83C008DF83F508DF83E400FA9EF48DD
:101C2000FFF7DEFA0120179000200F21CDE91801FF
:101C30001A901B901C901D901090CDE911041490E7
:101C400015900621CDE9001016901021CDE9020172
:101C5000139004900902CDE90801069005900790C1
:101C60008900CDE90A010C9017A80D9010A80E90DC
:101C70006846FFF751FA01210620FFF73DFA3220AE
:101C800005F072FDD64CD320208001F0B3FED54D77
:101C9000A88001F0AFFE2946888001F0ABFE4FF628
:101CA000FF77294607EA0020888001F0A3FE294635
:101CB00049F2413A898847F289760843294645F234
:101CC0001038888045F2105941F6631B504572D098
:101CD0000420208001F08EFEA88001F08BFEA880F9
:101CE00001F088FE07EA0020A88001F083FEA988A1
:101CF0000843A0F50541A880523958D0B0425AD0C7
:101D0000D420208001F076FEA88001F073FEA88028
:101D100001F070FE07EA0020A88001F06BFEA988A0
:101D20000843A880404546D055214FF4704002F04A
:101D30009DF8AA214FF2010002F098F852214FF2CB
:101D4000020002F093F808214FF2030002F08EF82F
:101D500001214FF2040002F089F84FF44540208041
:101D600001F048FE07EA0020A8804CF201502080D4
:101D700001F040FEA9880843A880052005F0F4FC86
:101D8000A988494517D0A120208001F033FEA88002
:101D900001F030FE07EA0020A88001F02BFEA988A0
:101DA0000843A0F5AE41A880613902D003E0AE80BF
:101DB00001E0A5F804B0A9888BA004F05FF9A88819
:101DC000874DAD1C50457DD1CF202080002028803C
:101DD000C120288030202880ED20208064202880A9
:101DE000032028801220288081202880E82020805D
:101DF00085202880102028807A202880CB202080F1
:101E0000392028802C202880002028803420288019
:101E100002202880F720208020202880EA202080AF
:101E2000002028802880C02020801B202880C120FE
:101E3000208001202880C520208030202880288014
:101E4000C7202080B7202880362020804820288086
:101E50003A20208055202880B12020800020288032
:101E60001A202880B62020800A202880A2202880DE
:101E7000F220208000202880262020800120288039
:101E8000E02020800F2028802A20288028202880F9
:101E9000082028800E2028800820288054202880B0
:101EA000A9202880432028800A2028800F2028800D
:101EB00000202880288028802880E12020800020A1
:101EC000288000E031E01520288017202880072096
:101ED000288011202880062028802B20288056204A
:101EE00028803C20288005202880102028800F2072
:101EF00028803F20288028800F2028802B202080C9
:101F0000002028802880012028803F2028802A2047
:101F100020800020288028802880EF202880112021
:101F20002080782005F020FC9EE0B0427ED1112078
:101F30002080782005F018FC3620208000202880A2
:101F40003A20208005202880B22020800C20288084
:101F5000288000202880332028802880B7202080F7
:101F600035202880BB20208032202880C02020807F
:101F70000C202880C220208001202880C3202080BF
:101F800010202880C420208020202880C620208087
:101F90000F202880D0202080A4202880A120288005
:101FA000E0202080D0202880002028800220288067
:101FB000072028800A202880282028803220288096
:101FC0004420288042202880062028800E2013E00C
:101FD000000C0140001401400018014000200140A5
:101FE000FE07006CFC010020204C43442049443A89
:101FF00025780D0A00000000288012202880142077
:10200000288017202880E1202080D02028800020F0
:10201000288002202880072028800A202880282065
:102020002880312028805420288000E01FE04720AD
:1020300028800E2028801C202880172028801B2024
:1020400028801E2028802A202080002028802880A8
:102050002880EF2028802B202080002028802880C6
:10206000012028803F202880292001F02EBC4045F7
:102070007ED1ED20208001202880FE202880EE20C7
:102080002080DE20288021202880F120208001204F
:102090002880DF20208010202880C42020808F20EE
:1020A0002880C620208000202880E22028802880E8
:1020B0002880BF202080AA202880B02020800D20EA
:1020C0002880002028800D202880002028801120D2
:1020D00028800020288019202880002028802120A6
:1020E0002880002028802D202880002028803D2066
:1020F0002880002028805D202880002028805D2006
:10210000288000202880B120208080202880002086
:1021100028808B202880002028809620288000207E
:102120002880B2202080002028802880022028805B
:10213000002028800320288000202880B3202080D1
:1021400000202880288028802880288028802880D7
:10215000288028802880288028802880288028803F
:10216000288028802880288028802880288000E0F7
:10217000FEE328802880B42020808B202880002047
:1021800028809620288000202880A12028800020F8
:102190002880B5202080022028800020288003206D
:1021A0002880002028800420288000202880B62055
:1021B0002080002028802880B720208000202880D0
:1021C00028803F202880002028805E202880002052
:1021D000288064202880002028808C2028800020EF
:1021E0002880AC20288000202880DC202880002047
:1021F00028807020288000202880902028800020BF
:102200002880EB20288000202880DC2028800020E7
:102210002880B820208000202880288028802880DE
:102220002880288028802880BA20208024202880A8
:102230000020288028802880C1202080202028801D
:10224000002028805420288000202880FF2028801B
:1022500000202880C22020800A202880002028809A
:102260000420288000202880C32020803C20288053
:10227000002028803A2028800020288039202880CB
:102280000020288037202880002028803C202880BB
:1022900000202880362028800020288032202880B6
:1022A000002028802F202880002028802C202880B3
:1022B00000202880292028800020288026202880AF
:1022C00000202880242028800020288024202880A6
:1022D0000020288023202880002028803C2028807F
:1022E0000020288036202880002028803220288066
:1022F000002028802F202880002028802C20288063
:10230000002028802920288000202880262028805E
:102310000020288024202880002028802420288055
:10232000002028802320288000202880C4202080AE
:102330006220288000202880052028800020288016
:102340008420288000202880F020288000202880F9
:102350001820288000202880A420288000202880A1
:1023600018202880002028805020288000202880E5
:102370000C2028800020288017202880002028801A
:102380009520288000202880F320288000202880A5
:10239000E620288000202880C52020803220288048
:1023A0000020288044202880002028806520288064
:1023B00000202880762028800020288088202880FF
:1023C00000202880C620208020202880002028800F
:1023D00017202880002028800120288000202880C5
:1023E000C720208000202880288028802880C820BE
:1023F000208000202880288028802880C9202080F4
:102400000020288028802880288028802880288014
:10241000288028802880288028802880288028807C
:102420002880E020208016202880002028801C2082
:102430002880002028802120288000202880362025
:1024400028800020288046202880002028805220D4
:1024500028800020288064202880002028807A207E
:102460002880002028808B20288000202880992028
:10247000288000202880A820288000202880B920DB
:10248000288000202880C420288000202880CA209E
:10249000288000202880D220288000202880D92071
:1024A000288000202880E020288000202880F32039
:1024B000288000202880E12020801620288000200D
:1024C00028801C20288000202880222028800020AE
:1024D0002880362028800020288045202880002061
:1024E0002880522028800020288064202880002016
:1024F00028807A202880002028808B2028800020B7
:1025000028809920288000202880A820288000206A
:102510002880B920288000202880C420288000201E
:102520002880CA20288000202880D22028800020EF
:102530002880D820288000202880E02028800020C3
:102540002880F320288000202880E2202080052099
:102550002880002028800B202880002028801B2035
:1025600028800020288034202880002028804420D3
:102570002880002028804F2028800020288061208B
:10258000288000202880792028800020288088202A
:102590002880002028809720288000202880A620DE
:1025A000288000202880B720288000202880C22092
:1025B000288000202880C720288000202880D12063
:1025C000288000202880D620288000202880DD2038
:1025D000288000202880F320288000202880E32005
:1025E000208005202880002028800A2028800020C4
:1025F00028801C202880002028803320288000206C
:102600002880442028800020288050202880002016
:1026100028806220288000202880782028800020C0
:10262000288088202880002028809720288000206B
:102630002880A620288000202880B720288000201D
:102640002880C220288000202880C72028800020E1
:102650002880D120288000202880D52028800020B4
:102660002880DD20288000202880F320288000207A
:102670002880E4202080012028800020288001205C
:1026800028800020288002202880002028802A20FE
:102690002880002028803C202880002028804B2093
:1026A0002880002028805D20288000202880742039
:1026B00028800020288084202880002028809320E3
:1026C000288000202880A220288000202880B32095
:1026D000288000202880BE20288000202880C42058
:1026E000288000202880CD20288000202880D3202A
:1026F000288000202880DD20288000202880F320EA
:10270000288000202880E520208000202880288044
:1027100028802880022028800020288029202880E6
:10272000002028803C202880002028804B20288002
:10273000002028805D2028800020288074202880A8
:102740000020288084202880002028809320288052
:1027500000202880A220288000202880B320288004
:1027600000202880BE20288000202880C4202880C7
:1027700000202880CD20288000202880D320288099
:1027800000202880DC20288000202880F32028805A
:1027900000202880E620208011202880002028802A
:1027A000342028800020288056202880002028807F
:1027B000762028800020288077202880002028800C
:1027C00066202880002028808820288000202880FB
:1027D0009920288000202880BB2028800020288085
:1027E00099202880002028806620288000202880CA
:1027F000552028800020288055202880002028800F
:102800004520288000202880432028800020288020
:102810004420288000202880E72020803220288043
:1028200000202880552028800020288076202880BD
:1028300000202880662028800020288067202880AB
:10284000002028806720288000202880872028807A
:10285000002028809920288000202880BB20288004
:102860000020288099202880002028807720288038
:10287000002028804420288000202880562028809E
:1028800000202880232028800020288033202880D2
:10289000002028804520288000202880E8202080F3
:1028A00000202880288099202880002028808720E8
:1028B00028800020288088202880002028807720F9
:1028C00028800020288066202880002028808820FA
:1028D000288000202880AA20288000202880BB2073
:1028E00028800020288099202880002028806620C9
:1028F000288000202880552028800020288055200E
:10290000288000202880442028800020288044201F
:102910002880002028805520288000202880E92059
:102920002080AA20288000202880288028802080DD
:10293000AA202880CF20208000202880288028807E
:102940002880288028802880288028802880288047
:10295000288028802880288028802880F0202080D7
:10296000002028805020288000202880288000E037
:102970002BE02880F320208000202880F920208070
:1029800006202880102028802920288000202880E8
:102990003A2020805520288011202080642004F0D7
:1029A000E3FE29202080352020800020288051202F
:1029B0002080FF202880532020802C202880552034
:1029C0002080822028802C20FDE348457ED14FF4D2
:1029D00070495521484601F049FA4FF20108AA21F1
:1029E000404601F043FA4FF202035221184601F02B
:1029F0003DFA4FF203050821284601F037FA6E1C14
:102A00000121304601F032FA0D214FF4304001F03F
:102A10002DFA0D214BF2010001F028FA0D214BF2A5
:102A2000020001F023FA4FF4364A3421504601F0F7
:102A30001DFA34214BF2016001F018FA34214BF2F7
:102A4000026001F013FA4FF4314B0D21584601F0AA
:102A50000DFA0D214BF2011001F008FA0D214BF295
:102A6000021001F003FA34214FF4374001F0FEF96F
:102A700034214BF2017001F0F9F934214BF202706C
:102A800001F0F4F900214FF4324001F0EFF9002198
:102A90004BF2012001F0EAF900214BF2022001F093
:102AA000E5F924214FF4384001F0E0F924214BF6F8
:102AB000010001F0DBF924214BF6020001F0D6F908
:102AC00001214FF43F4001F0D1F900E0FEE30F2176
:102AD0004FF4334001F0CAF90F214BF2013001F0FD
:102AE000C5F90F214BF2023001F0C0F934214FF447
:102AF000394001F0BBF934214BF6011001F0B6F971
:102B000034214BF6021001F0B1F908214FF43540A1
:102B100001F0ACF908214BF2015001F0A7F90821AE
:102B20004BF2025001F0A2F903214FF4424001F0B0
:102B30009DF924214FF43A4001F098F924214BF6F5
:102B4000012001F093F924214BF6022001F08EF9C7
:102B500000214FF43C4001F089F978214BF6014007
:102B600001F084F900214BF6024001F07FF90021C9
:102B70004FF43D4001F07AF978214BF6015001F015
:102B800075F900214BF6025001F070F900214FF465
:102B90003E4001F06BF964214BF6016001F066F9EB
:102BA00000214FF4514001F061F933214DF2011041
:102BB00001F05CF900214DF2021001F057F93421C7
:102BC0004DF2031001F052F900214DF2041001F012
:102BD0004DF93A214DF2051001F048F900214DF26E
:102BE000061001F043F94A214DF2071001F03EF9B9
:102BF00000214DF2081001F039F95C214DF2091065
:102C000001F034F900214DF20A1001F02FF9812171
:102C10004DF20B1001F02AF900214DF20C1001F0D9
:102C200025F9A6214DF20D1001F020F900214DF2F9
:102C30000E1001F01BF9E5214DF20F1001F016F90D
:102C400001214DF2101001F011F913214DF2111074
:102C500001F00CF901214DF2121001F007F9542195
:102C60004DF2131001F002F901214DF2141001F0A0
:102C7000FDF882214DF2151001F0F8F801214DF216
:102C8000161001F0F3F8CA214DF2171001F0EEF81A
:102C900002214DF2181001F0E9F800214DF219104F
:102CA00001F0E4F802214DF21A1001F0DFF80121E1
:102CB0004DF21B1001F0DAF802214DF21C1001F068
:102CC000D5F834214DF21D1001F0D0F802214DF25B
:102CD0001E1001F0CBF867214DF21F1001F0C6F86D
:102CE00002214DF2201001F0C1F884214DF2211093
:102CF00001F0BCF802214DF2221001F0B7F8A42136
:102D00004DF2231001F0B2F802214DF2241001F02F
:102D1000ADF8B7214DF2251001F0A8F802214DF2CF
:102D2000261001F0A3F8CF214DF2271001F09EF8F4
:102D300002214DF2281001F099F8DE214DF2291000
:102D400001F094F802214DF22A1001F08FF8F221DF
:102D50004DF22B1001F08AF802214DF22C1001F0F7
:102D600085F8FE214DF22D1001F080F803214DF27F
:102D70002E1001F07BF810214DF22F1001F076F8A3
:102D800003214DF2301001F071F833214DF2311072
:102D900001F06CF803214DF2321001F067F86D215B
:102DA0004DF2331001F062F800214FF4524001F06F
:102DB0005DF833214DF2012001F058F800214DF269
:102DC000022001F053F834214DF2032001F04EF8B7
:102DD00000214DF2042001F049F83A214DF205207E
:102DE00001F044F800214DF2062001F03FF84A219D
:102DF0004DF2072001F03AF800214DF2082001F0D1
:102E000035F85C214DF2092001F030F800214DF237
:102E10000A2001F02BF881214DF20B2001F026F859
:102E200000214DF20C2001F021F8A6214DF20D20D9
:102E300001F01CF800214DF20E2001F017F8E521F9
:102E40004DF20F2001F012F801214DF2102001F097
:102E50000DF813214DF2112001F008F801214DF277
:102E6000122001F003F854214DF2132000F0FEFF70
:102E700001214DF2142000F0F9FF82214DF21520BE
:102E800000F0F4FF01214DF2162000F0EFFFCA21FF
:102E90004DF2172000F0EAFF02214DF2182000F059
:102EA000E5FF00214DF2192000F0E0FF02214DF274
:102EB0001A2000F0DBFF01214DF21B2000F0D6FFAD
:102EC00002214DF21C2000F0D1FF34214DF21D20D3
:102ED00000F0CCFF02214DF21E2000F0C7FF672159
:102EE0004DF21F2000F0C2FF02214DF2202000F021
:102EF000BDFF84214DF2212000F0B8FF02214DF2E8
:102F0000222000F0B3FFA4214DF2232000F0AEFFF9
:102F100002214DF2242000F0A9FFB7214DF2252017
:102F200000F0A4FF02214DF2262000F09FFFCF21E8
:102F30004DF2272000F09AFF02214DF2282000F0E8
:102F400095FFDE214DF2292000F090FF02214DF285
:102F50002A2000F08BFFF2214DF22B2000F086FF9B
:102F600002214DF22C2000F081FFFE214DF22D2098
:102F700000F07CFF03214DF22E2000F077FF10219E
:102F80004DF22F2000F072FF03214DF2302000F0AF
:102F90006DFF33214DF2312000F068FF03214DF227
:102FA000322000F063FF6D214DF2332000F05EFF10
:102FB00000214FF4534000F059FF33214DF201300E
:102FC00000F054FF00214DF2023000F04FFF342199
:102FD0004DF2033000F04AFF00214DF2043000F0C2
:102FE00045FF3A214DF2053000F040FF00214DF23F
:102FF000063000F03BFF4A214DF2073000F036FF6B
:1030000000214DF2083000F031FF5C214DF2093013
:1030100000F02CFF00214DF20A3000F027FF812143
:103020004DF20B3000F022FF00214DF20C3000F089
:103030001DFFA6214DF20D3000F018FF00214DF2CA
:103040000E3000F013FFE5214DF20F3000F00EFFBF
:1030500001214DF2103000F009FF13214DF2113023
:1030600000F004FF01214DF2123000F0FFFE542168
:103070004DF2133000F0FAFE01214DF2143000F051
:10308000F5FE82214DF2153000F0F0FE01214DF2E7
:10309000163000F0EBFECA214DF2173000F0E6FECC
:1030A00002214DF2183000F0E1FE00214DF21930FE
:1030B00000F0DCFE02214DF21A3000F0D7FE0121B3
:1030C0004DF21B3000F0D2FE02214DF21C3000F018
:1030D000CDFE34214DF21D3000F0C8FE02214DF22C
:1030E0001E3000F0C3FE67214DF21F3000F0BEFE1F
:1030F00002214DF2203000F0B9FE84214DF2213042
:1031000000F0B4FE02214DF2223000F0AFFEA42107
:103110004DF2233000F0AAFE02214DF2243000F0DF
:10312000A5FEB7214DF2253000F0A0FE02214DF2A0
:10313000263000F09BFECF214DF2273000F096FEA6
:1031400002214DF2283000F091FEDE214DF22930AF
:1031500000F08CFE02214DF22A3000F087FEF221B1
:103160004DF22B3000F082FE02214DF22C3000F0A7
:103170007DFEFE214DF22D3000F078FE03214DF250
:103180002E3000F073FE10214DF22F3000F06EFE55
:1031900003214DF2303000F069FE33214DF2313021
:1031A00000F064FE03214DF2323000F05FFE6D212D
:1031B0004DF2333000F05AFE00214FF4544000F03D
:1031C00055FE332100E080E34DF2014000F04EFE59
:1031D00000214DF2024000F049FE34214DF203403F
:1031E00000F044FE00214DF2044000F03FFE3A2181
:1031F0004DF2054000F03AFE00214DF2064000F08D
:1032000035FE4A214DF2074000F030FE00214DF21C
:10321000084000F02BFE5C214DF2094000F026FE34
:1032200000214DF20A4000F021FE81214DF20B40B9
:1032300000F01CFE00214DF20C4000F017FEA6210C
:103240004DF20D4000F012FE00214DF20E4000F054
:103250000DFEE5214DF20F4000F008FE01214DF278
:10326000104000F003FE13214DF2114000F0FEFD6E
:1032700001214DF2124000F0F9FD54214DF21340AE
:1032800000F0F4FD01214DF2144000F0EFFD822129
:103290004DF2154000F0EAFD01214DF2164000F01C
:1032A000E5FDCA214DF2174000F0E0FD02214DF28C
:1032B000184000F0DBFD00214DF2194000F0D6FD72
:1032C00002214DF21A4000F0D1FD00E0FFE20121A1
:1032D0004DF21B4000F0CAFD02214DF21C4000F0EF
:1032E000C5FD34214DF21D4000F0C0FD02214DF21C
:1032F0001E4000F0BBFD67214DF21F4000F0B6FDFF
:1033000002214DF2204000F0B1FD84214DF2214018
:1033100000F0ACFD02214DF2224000F0A7FDA421F7
:103320004DF2234000F0A2FD02214DF2244000F0B6
:103330009DFDB7214DF2254000F098FD02214DF290
:10334000264000F093FDCF214DF2274000F08EFD86
:1033500002214DF2284000F089FDDE214DF2294086
:1033600000F084FD02214DF22A4000F07FFDF221A1
:103370004DF22B4000F07AFD02214DF22C4000F07E
:1033800075FDFE214DF22D4000F070FD03214DF240
:103390002E4000F06BFD10214DF22F4000F066FD35
:1033A00003214DF2304000F061FD33214DF23140F8
:1033B00000F05CFD03214DF2324000F057FD6D211D
:1033C0004DF2334000F052FD00214FF4554000F023
:1033D0004DFD33214DF2015000F048FD00214DF22A
:1033E000025000F043FD34214DF2035000F03EFD49
:1033F00000214DF2045000F039FD3A214DF2055004
:1034000000F034FD00214DF2065000F02FFD4A215E
:103410004DF2075000F02AFD00214DF2085000F057
:1034200025FD5C214DF2095000F020FD00214DF2F8
:103430000A5000F01BFD81214DF20B5000F016FDEB
:1034400000214DF20C5000F011FDA6214DF20D505F
:1034500000F00CFD00214DF20E5000F007FDE521BB
:103460004DF20F5000F002FD01214DF2105000F01E
:10347000FDFC13214DF2115000F0F8FC01214DF23A
:10348000125000F0F3FC54214DF2135000F0EEFC0A
:1034900001214DF2145000F0E9FC82214DF215504B
:1034A00000F0E4FC01214DF2165000F0DFFCCA21CF
:1034B0004DF2175000F0DAFC02214DF2185000F0E6
:1034C000D5FC00214DF2195000F0D0FC02214DF244
:1034D0001A5000F0CBFC01214DF21B5000F0C6FC4D
:1034E00002214DF21C5000F0C1FC34214DF21D5060
:1034F00000F0BCFC02214DF21E5000F0B7FC672129
:103500004DF21F5000F0B2FC02214DF2205000F0AD
:10351000ADFC84214DF2215000F0A8FC02214DF2B7
:10352000225000F0A3FCA4214DF2235000F09EFC99
:1035300002214DF2245000F099FCB7214DF22550A4
:1035400000F094FC02214DF2265000F08FFCCF21B8
:103550004DF2275000F08AFC02214DF2285000F075
:1035600085FCDE214DF2295000F080FC02214DF255
:103570002A5000F07BFCF2214DF22B5000F076FC3B
:1035800002214DF22C5000F071FCFE214DF22D5025
:1035900000F06CFC03214DF22E5000F067FC10216E
:1035A0004DF22F5000F062FC03214DF2305000F03C
:1035B0005DFC33214DF2315000F058FC03214DF2F7
:1035C000325000F053FC6D214DF2335000F04EFCB0
:1035D00000214FF4564000F049FC33214DF20160C8
:1035E00000F044FC00214DF2026000F03FFC342169
:1035F0004DF2036000F03AFC00214DF2046000F04F
:1036000035FC3A214DF2056000F030FC00214DF20E
:10361000066000F02BFC4A214DF2076000F026FC0A
:1036200000214DF2086000F021FC5C214DF20960A0
:1036300000F01CFC00214DF20A6000F017FC812113
:103640004DF20B6000F012FC00214DF20C6000F016
:103650000DFCA6214DF20D6000F008FC00214DF29A
:103660000E6000F003FCE5214DF20F6000F0FEFB60
:1036700001214DF2106000F0F9FB13214DF21160B1
:1036800000F0F4FB01214DF2126000F0EFFB542139
:103690004DF2136000F0EAFB01214DF2146000F0DE
:1036A000E5FB82214DF2156000F0E0FB01214DF2B7
:1036B000166000F0DBFBCA214DF2176000F0D6FB6C
:1036C00002214DF2186000F0D1FB00214DF219608B
:1036D00000F0CCFB02214DF21A6000F0C7FB012183
:1036E0004DF21B6000F0C2FB02214DF21C6000F0A5
:1036F000BDFB34214DF21D6000F0B8FB02214DF2FC
:103700001E6000F0B3FB67214DF21F6000F0AEFBBE
:1037100002214DF2206000F0A9FB84214DF22160CE
:1037200000F0A4FB02214DF2226000F09FFBA421D7
:103730004DF2236000F09AFB02214DF2246000F06C
:1037400095FBB7214DF2256000F090FB02214DF270
:10375000266000F08BFBCF214DF2276000F086FB46
:1037600002214DF2286000F081FBDE214DF229603C
:1037700000F07CFB02214DF22A6000F077FBF22181
:103780004DF22B6000F072FB02214DF22C6000F034
:103790006DFBFE214DF22D6000F068FB03214DF220
:1037A0002E6000F063FB10214DF22F6000F05EFBF5
:1037B00003214DF2306000F059FB33214DF23160AE
:1037C00000F054FB03214DF2326000F04FFB6D21FD
:1037D0004DF2336000F04AFB5521484600F046FBAD
:1037E000AA21404600F042FB5221184600F03EFB61
:1037F0000821284600F03AFB0021304600F036FB55
:10380000CC21584600F032FB00214BF2011000F0B1
:103810002DFB0521504600F029FB70214FF4374065
:1038200000F024FB70214BF2017000F01FFB01211E
:103830004FF4384000F01AFB03214BF6010000F072
:1038400015FB03214BF6020000F010FB03214BF6A1
:10385000030000F00BFB02214FF43C4000F006FB9C
:1038600000214BF6014000F001FB00214BF6024025
:1038700000F0FCFAD0214FF4494000F0F7FA0221A1
:103880004CF6011000F0F2FA50214CF6021000F054
:10389000EDFA50214CF6031000F0E8FA50214CF6F6
:1038A000041000F0E3FA00214FF4545000F0DEFA67
:1038B00055214FF4685000F0D9FA4FF48850208019
:1038C000782003F06BFF4FF4245020807BE05845B4
:1038D00079D1E22020801D20288002202880042029
:1038E0002880642003F05AFFE020208001202880F7
:1038F0000A2003F039FFE0202080032028800C20DC
:1039000003F032FF012020800A2003F02DFFE62083
:1039100020802F202880FF2028802880B020208031
:1039200020202880002028800320288040F21F309B
:1039300028800120288040F2DF1028800020288085
:10394000B42020800420288040F21F4028800020DE
:1039500028802E2028800020288028802880288009
:10396000B6202080022028804FF403702880002099
:103970002880172028801520288000202880288073
:10398000F02020800320288029202080D020208043
:1039900000202880BE20208005202880FE2028804E
:1039A000012028800020288028802880B8202080BE
:1039B0000320288001202880BA2020800120288030
:1039C000642000F021F80020FEF718F804490120D7
:1039D000C1F880013846FDF7F9FF1FB0BDE8F08F50
:1039E000008021420346012000E05843491EC9B22D
:1039F000FBD27047034808B50088ADF80000BDF859
:103A0000000008BD0008006C0C4A10B5BE211180F2
:103A1000941C05212180FCF7A2FE4FF06632084B72
:103A2000FCF786FDFCF7D5FE208001202080FF20DA
:103A3000208000202080208010BD0000FE07006C48
:103A40006666044070B54E4D00232946AA798988E0
:103A500041F66314012A01D01AB11BE0A14202D140
:103A600018E0A14216D1082814D2DFE800F00406BD
:103A7000080A0C0E101206200CE007200AE00420B1
:103A800008E0052006E0012004E0002002E0032019
:103A900000E00220082812D2DFE800F01104060836
:103AA0000A0C0E1080230AE0402308E0C02306E041
:103AB000202304E0602302E0A02300E0E02345F29D
:103AC0001056B14202D14FF4585000E03620A1F513
:103AD0001342413A03D0A1F5EE42893A01D143F0B5
:103AE0000803194600F0C2F9AA88A2420AD0980633
:103AF0002888698802D5884202D303E0884201D928
:103B0000298068801F48811CB2426A89028021D1C5
:103B100000230B80531C038000230B80931C038025
:103B20002B885B1E1C0A0C80D21C0280DAB20A8031
:103B3000AA89028000230B80531C038000230B8082
:103B4000931C03806B885B1E1C0A0C80D21C0280B5
:103B5000D8B212E000220A800A802A88521E130A74
:103B60000B80D2B20A80AA890280002008800880D7
:103B70006888401E020A0A80C0B2088070BD00003A
:103B8000FC010020FE07006C2DE9F043DFF8A49053
:103B9000294F4A46B9F804C09389050A0C0ABE1C8D
:103BA0005289ACF5C858B8F163080ED0ACF5A048FE
:103BB000B8F5A2683A80358033D0C0B230803B80FF
:103BC0003480C8B23080BDE8F083DFF868C099F86F
:103BD0000680BCF800C0B8F1000F16D03A803580DE
:103BE000C0B23080ACF1010C4FEA1C2030800CF0E8
:103BF000FF0030803B803480C8B23080B9F80200CA
:103C0000401E010A3180C0B2DCE7ACEB0000401E70
:103C100080B23A80002232803280020A3280C0B202
:103C2000E7E7521C3A80C0B230803B8034805B1C96
:103C30003B80C6E7FC010020FE07006C2DE9F84F31
:103C400082461F460C468B46580700D0012000EBE9
:103C5000D70079084843203AC0B202F0FF09002695
:103C6000009041E00C2F10D0102F12D0182F3ED111
:103C7000204909EBC90001EB80004FF00008855D89
:103C800028060AD51C4802880BE009EB49001B49AD
:103C9000F1E71B4901EB0910EFE70A9828B916482C
:103CA000428821465046FDF705FF6806050E154877
:103CB000641CA4B24088A04219D9A4EB0B00B842FE
:103CC00009D10AF101001FFA80FA0E485C4601880A
:103CD00051450CD906E008F1010000F0FF08B8F1E9
:103CE000080FCDD3761CF6B200988642BAD3BDE851
:103CF000F88F0000FCBE00082A00002098B40008DD
:103D00000CB90008FC0100202DE9FF4F81B000270D
:103D1000DDF838B01D46924680463C46B9464FEA2B
:103D20005B0627E0281B401EC1B20A20FFF75AFE9F
:103D3000BAFBF0F00A21B0FBF1F201FB120027B947
:103D4000691E8C4201DA48B101273030C2B206FB4D
:103D5000048080B25B46CDF8009006E006FB04804C
:103D600080B25B462022CDF800900299FFF766FFF3
:103D7000641CE4B2AC42D5D305B0BDE8F08F2DE9A8
:103D8000F84F044600F0FF0810190D46DDE90A76E9
:103D90001FFA80FA58191FFA80F94FF0000B11E052
:103DA000544502D3E819444685B24D450FD23B46EF
:103DB00029462046CDF800B0FFF740FF04EB57003E
:103DC00084B2761C3278A2F120005E28E8D9BDE8E2
:103DD000F88F2DE9FF4F81B08046DDF83CA00E98AA
:103DE0004FF000091F4693464C460AF0010546086D
:103DF0002BE0381B401EC1B20A20FFF7F3FDBBFBCE
:103E0000F0F00A21B0FBF1F201FB1200B9F1000F52
:103E100005D1791E8C4202DA48B14FF001093030E9
:103E2000C2B206FB048080B200950E9B08E05FEAF8
:103E30000A6006FB04800E9B80B200950AD53022F2
:103E40000299FFF7FBFE641CE4B2BC42D1D305B07B
:103E5000BDE8F08F2022F3E702480349008908807B
:103E600070470000FC010020FE07006C024A108031
:103E7000901C018070470000FE07006C38B50121DE
:103E8000482000F073FE2024ADF8004010208DF88B
:103E9000030003200B4D8DF8020069462846FDF70C
:103EA0009FF920212846FDF71EFAADF80040064C88
:103EB00069462046FDF794F920212046FDF713FAC4
:103EC00038BD0000000C0140001801402DE9FC5FE6
:103ED00015469B4A0F461046DDF830805168006851
:103EE00009B1012906D0FCF747FCA96800B2081AFD
:103EF000BDE8FC9F4FF0100B92A1CDE900B1642109
:103F00005B46C8220A20FFF73AFF3888002406B231
:103F1000002E4FF064014FF00C03009406DA2D22BE
:103F20001E20FFF78BFE704206B203E020221E2007
:103F3000FFF784FE4FF00C0A642105233246262049
:103F4000CDF800A0FFF7E0FEB8884FF05A0906B29E
:103F5000002E4FF0640148464FF00C03009405DA40
:103F60002D22FFF76BFE704206B202E02022FFF71F
:103F700065FE6421622005233246CDF800A0FFF7DC
:103F8000C3FE3889962706B2002E4FF064013846EA
:103F90004FF00C03009405DA2D22FFF74FFE70421C
:103FA00006B202E02022FFF749FE64219E2005238D
:103FB0003246CDF800A0FFF7A7FE62A1CDE900B11F
:103FC00078211023C8220A20FFF7D9FE28884FF055
:103FD000780106B2002E4FF00C03009406DA2D2271
:103FE0001E20FFF72BFE704206B203E020221E20A7
:103FF000FFF724FE7821052332462620CDF800A0C5
:10400000FFF782FEA8884FF0780106B2002E4846DE
:104010004FF00C03009405DA2D22FFF70FFE7042DB
:1040200006B202E02022FFF709FE78216220052374
:104030003246CDF800A0FFF767FEDFF80491D9F80B
:104040000000FCF799FB29894FF00C03081A06B20F
:10405000002E4FF078013846009405DA2D22FFF744
:10406000EDFD704206B202E02022FFF7E7FD782165
:104070009E2005233246CDF800A0FFF745FED8F874
:104080000000FCF779FB06B2002E4FF0A0014FF0C4
:104090001003009406DA2D221E20FFF7CFFD704298
:1040A00006B203E020221E20FFF7C8FDA021052351
:1040B00032462620CDF800B0FFF726FED8F80400DF
:1040C000FCF75AFBB42706B2002E39464FF0100316
:1040D000009406DA2D223E20FFF7B0FD704206B2B2
:1040E00003E020223E20FFF7A9FD39460523324692
:1040F0004620CDF800B0FFF707FED8F80800FCF71F
:104100003BFBC82706B2002E39464FF0100300943F
:1041100006DA2D225E20FFF791FD704206B203E021
:1041200020225E20FFF78AFD3946052332466620AD
:10413000CDF800B0FFF7E8FDD9F80000D3E60000A5
:1041400020000020414143002DE9F04FA7B09346E5
:10415000DDE930740E461D4625AA24A923A805F0E2
:10416000A5F855490C220028486802D001287DD0C6
:10417000A0E0012808D151A0CDE900201023C822D9
:104180003C211420FFF7FBFD00F0E0F822AA21A952
:1041900020A800F0A9F81FAA1EA91DA800F0BDF8CC
:1041A000BDF97C10BDF97800CDE90001BDF974308E
:1041B000BDF98820BDF98410BDF9800005F023F811
:1041C00042492598FCF791F8FCF7D6FADFF800A1F0
:1041D0000FFA80F951462398FCF787F8FCF7CCFAE0
:1041E0000FFA80F851462498FCF77FF8FCF7C4FAE0
:1041F000BDF97C3002A900B2019381E80103BDF949
:1042000078000090BDF97430BDF98820BDF98410A4
:10421000BDF9800006F084F9BDF980003060BDF979
:104220008490C6F80490BDF98880C6F80880FCF731
:1042300077FA1A904846FCF773FA1B904046FCF751
:104240006FFA1C90BDF874003880BDF87800788053
:10425000BDF87C00B8802398206024986060259881
:10426000A060214605A8FDF740F800E019E005AA86
:1042700059460EA800F0BCFB1AAA0EA917A800F018
:104280008DFB1798FCF778FA28601898FCF774FAF9
:1042900068601998FCF770FAA860002027B0BDE8A4
:1042A000F08F0CA0CDE900201023C8223C2114205F
:1042B000FFF765FD0120F1E7200000204D5055205B
:1042C000444D50204F4B2020202000000000204172
:1042D0000000C8424D505520444D50204552524F89
:1042E00052202020200000007CB514460D460646D2
:1042F0006B4606223B21682000F0F7F900280BD11D
:10430000BDF8001049BA3180BDF8021049BA2980C1
:10431000BDF8041049BA21807CBD7CB514460D4619
:1043200006466B4606224321682000F0DEF900288D
:104330000BD1BDF8001049BA3180BDF8021049BA5E
:104340002980BDF8041049BA21807CBD08B56B46B0
:1043500002224121682000F0C8F9BDF8000040BAEF
:1043600000B2FCF7EBF90022074BFCF753F9074AC0
:10437000074BFCF736F8FCF789FA0649FBF7B5FF5F
:10438000FCF7FAF900B208BD00407540A4703D0A80
:10439000D74342400000C84270B50D4C0025C4F818
:1043A000A8510C48016821F470410160016841F492
:1043B00040510160C4F8AC51022004F5D47403F0FC
:1043C000EDF901202060022003F0E8F9256070BDBE
:1043D00000802142040C014038B50121082000F082
:1043E000C5FB4FF44064ADF8004010208DF8030089
:1043F0000320064D8DF8020069462846FCF7F0FEC2
:1044000021462846FCF76FFF38BD0000000C014034
:1044100070B50D4C0026C4F8A8610C48016821F461
:1044200070410160016841F4405101600125C4F808
:10443000AC51022004F5D47403F0B0F925600220D9
:1044400003F0ACF9266070BD00802142040C0140ED
:104450002DE9F047814617480024016821F4704196
:104460000160016841F400410160134E2546274672
:104470004FF00108C6F8A871022003F08FF9C6F8C2
:10448000A8816006040ED6F82C0108B1641CE4B2C1
:10449000022003F083F96D1CEDB2082DEAD3B9F1C7
:1044A000000F04D0FFF778FF2046BDE8F087FFF744
:1044B000AFFFF9E7040C0140008021422DE9F041F3
:1044C00005461248016821F470410160016841F419
:1044D000405101600E4E0027C6F8A8713C464FF0CF
:1044E0000108E809C6F8AC016806050EC6F8A881FF
:1044F000022003F053F9C6F8A871022003F04EF928
:10450000641CE4B2082CECD3BDE8F081040C01403B
:104510000080214270B50D48016821F470410160AE
:10452000016841F440510160094C0120C4F8AC011C
:10453000C4F8A801022004F5D47403F02FF9002573
:104540006560022003F02AF9256070BD040C01406B
:10455000008021420E4810B5016821F470410160CD
:10456000016841F4405101600A4C0020C4F8A801E0
:10457000C4F8AC01022004F5D47403F00FF9012053
:1045800020606060BDE81040022003F007B9000021
:10459000040C01400080214270B5134800240168DA
:1045A00021F470410160016841F4004101600F4D48
:1045B0000126C5F8AC61022003F0F0F8C5F8A86147
:1045C000022003F0EBF807E0641CE4B2FA2C03D9F4
:1045D000FFF7C0FF012070BDD5F82C010028F3D1F2
:1045E000C5F8A80170BD0000040C01400080214204
:1045F00008B50121084600F0B9FA0121042000F0B5
:10460000B5FA4FF40040ADF8000010208DF803001B
:1046100003208DF8020069462248FCF7E1FD0121E4
:104620002148FCF72BFE21490020C1F8BC01FFF70F
:10463000D3FE80216B2000F015F9642003F094F87C
:1046400000216B2000F00EF9032000F088F8002014
:1046500000F080F8322000F09FF80021382000F0B0
:1046600001F900216A2000F0FDF80021232000F06C
:10467000F9F88021372000F0F5F8752000F018F8DF
:10468000682801D0012008BD01216B2000F0EAF864
:1046900000216C2000F0E6F8322000F07DF80020C8
:1046A00008BD000000080140000230000000214267
:1046B00010B50446FFF72EFFD020FFF7FFFEFFF7EF
:1046C0006BFF2046FFF7FAFEFFF766FFFFF722FFBA
:1046D000D120FFF7F3FEFFF75FFF0020FFF7B8FEE2
:1046E0000446FFF737FF204610BD2DE9F0411C4678
:1046F00015460F460646FFF70DFF7006000EFFF742
:10470000DDFEFFF749FF20B1FFF724FF0120BDE8E0
:10471000F0813846FFF7D2FEFFF73EFFFFF7FAFEC3
:10472000012000EB4600C0B2FFF7C8FEFFF734FFE0
:1047300008E0012D0CD00120FFF78AFE6D1E04F861
:10474000010BEDB2002DF4D1FFF704FF0020DEE7EE
:104750000020F1E7C006010E1C2000F083B8C0065F
:10476000010E1B2000F07EB8BC2801D3012110E00F
:10477000622801D302210CE02A2801D3032108E09A
:10478000142801D3042104E00A2801D3052100E004
:1047900006211A2000F066B810B504464FF47A706E
:1047A000844201D9044602E0042C00D20424B0FB68
:1047B000F4F0401EC1B2192000F054F86008BDE8C2
:1047C0001040FFF7D1BF00002DE9FF471F4801F05F
:1047D0008FF9FFF70DFF0C264FF6FF771C4D4FF0BA
:1047E0000008DFF8709004F031FE04466868012884
:1047F00001D0A8B11EE005232246A0211E2000966C
:10480000FFF782FAC82002F0AFFF9223EF22822145
:104810001E200097FDF7A4F9C82002F0A5FF09E0CB
:1048200022460DA101A801F039FC01A8FDF792F87C
:1048300089F80180082C01D0002CD4D1012005F08A
:10484000A7FA04B02046BDE8F087000020A10700C9
:10485000200000201C07002020496E6920256420CC
:104860000A00000070B50C460546FFF753FED02045
:10487000FFF724FEFFF790FE50B92846FFF71EFE13
:10488000FFF78AFE2046FFF719FEFFF785FE18B1F5
:10489000FFF760FE012070BDFFF75CFE002070BDD9
:1048A0002DE9F0411D4616460C460746FFF732FE3D
:1048B0007806000EFFF702FEFFF76EFE60B9204695
:1048C000FFF7FCFDFFF768FE00240CE0285DFFF712
:1048D000F5FDFFF761FE20B1FFF73CFE0120BDE8CA
:1048E000F081641CE4B2B442F0D3FFF733FE002041
:1048F000F5E7000070B505469CB000200E4602901A
:1049000003900446049022E014A91AA8CDE90001FE
:1049100017AB08AA05A90120FFF716FC08B1641E11
:1049200014E00598FBF7FCFE0299FBF786FC029069
:104930000698FBF7F5FE0399FBF77FFC03900798B9
:10494000FBF7EEFE0499FBF778FC0490641CAC4284
:10495000DADD681CFBF7E4FE044621460298FBF70B
:10496000F6FC029021460398FBF7F1FC03902146E8
:104970000498FBF7ECFC049002A93046FCF73DFEDE
:1049800002AA314611A800F009F8034913980860FB
:1049900013981CB070BD0000200000202DE9F047E6
:1049A000904689468246012701250026012421469A
:1049B0003846FCF7C1FC621908EB820159F8200067
:1049C00051F8081CFBF791FC3146FBF736FC641CE0
:1049D0000646032CEBDD79190AEB81006D1C40F8CB
:1049E000086C012DE1DD7F1C032FDDDDBDE8F087C4
:1049F0002DE9F04790468946824601270126002589
:104A0000012431462046FCF797FC58F82020214627
:104A10003846FCF791FC59F820001146FBF765FC7D
:104A20002946FBF70AFC054631463846FCF784FC6C
:104A3000641C4AF82050032CE3DD761C032EDEDDD7
:104A40007F1C032FDADDBDE8F087FEE7704700002A
:104A500030B50F23C27801780125F2B1144A1268EB
:104A600001F1E02102F4E062C2F5E062120AC2F153
:104A70000404D3404278A24084781C4014432201AD
:104A800081F80024007800F01F018D40400980006B
:104A900000F1E020C0F8005130BD01F01F0085405A
:104AA0004809800000F1E020C0F8805130BD0000CE
:104AB0000CED00E00249084302490860704700001D
:104AC0000000FA050CED00E070B505460846FBF75E
:104AD00099FE00220B4BFBF79DFD00220A4BFBF7D2
:104AE00024FDFBF7D3FE04462846FBF719FE2146BA
:104AF000FBF7FBFB4FF07E51FBF7F1FBBDE870408D
:104B0000FBF73ABE000059400000F03F704700003C
:104B1000034A516821F4404101435160704700004D
:104B200000100240044A0029516901D0014300E00D
:104B3000814351617047000000100240044A00297F
:104B4000D16901D0014300E08143D1617047000089
:104B500000100240044A0029116901D0014300E01D
:104B6000814311617047000000100240044A00298F
:104B7000916901D0014300E08143916170470000D9
:104B800000100240044A0029D16801D0014300E02E
:104B90008143D160704700000010024030B5204AC8
:104BA0005168204B11F00C0103D0042901D00829D1
:104BB00001D0036012E05168536801F470114FF0A6
:104BC000020413F4803F04EB914102D053689B032D
:104BD00001D5154B00E0134B5943016051680F2379
:104BE00003EA1111114B5C5C0168E14041605468BB
:104BF000072505EA14241C5D21FA04F48460546836
:104C000005EAD4241B5DD940C1605268032303EA3E
:104C10009232064B1B1F9A5CB1FBF2F1016130BD71
:104C20000010024000127A0000093D00A800002098
:104C300038B501214FF4B070FFF798FF0320ADF8AD
:104C4000000028248DF8034069460B48FCF7C8FA99
:104C50004FF4C060ADF800008DF803406946074886
:104C6000FCF7BEFA0420ADF800008DF80340694659
:104C70000348FCF7B5FA38BD001801400020014098
:104C8000001401402DE9F0473B4CDFF8F0803C4E2A
:104C90003C4D01274FF400794FF4806A08B16770EA
:104CA00001E06078E8B101213046FCF713FB0128F0
:104CB0001DD002213046FCF70DFB012817D004213E
:104CC0004046FCF707FB012811D049462846FCF76F
:104CD00001FB01280BD051462846FCF7FBFA0128BE
:104CE00005D001213046FCF7F5FA68B341E00A200F
:104CF00002F03AFD0020607004214046FCF7EAFA19
:104D0000012818D002213046FCF7E4FA012815D01A
:104D100001213046FCF7DEFA01280DD0494628462D
:104D2000FCF7D8FA01280BD051462846FCF7D2FAF6
:104D3000012807D01DE00320BDE8F0870220FBE733
:104D40000720F9E70820F7E702213046FCF7C2FA0E
:104D500078B904214046FCF7BDFA50B949462846C7
:104D6000FCF7B8FA28B951462846FCF7B3FA00B95F
:104D700067700020E0E700002800002000140140D8
:104D8000001801400020014070B5322002F006FDFD
:104D90000A4C0120C4F8B401C4F88C01322004F597
:104DA000C67402F0FBFC00252560322002F0F6FC00
:104DB000A562BDE87040322002F0F0BC00802342C2
:104DC0002DE9F047174F0024386820F47000386050
:104DD000386840F400003860134E08254FF0010891
:104DE000A146322002F0DAFCC6F88C816006040E7F
:104DF000D6F8340108B1641CE4B2322002F0CEFCD3
:104E0000C6F88C916D1E15F0FF05EAD1386820F4C4
:104E100070003860386840F4401038602046BDE8C3
:104E2000F0870000041C01400080234210B50446B6
:104E300000F026F8482000F051F8642002F0AEFCA3
:104E4000200A00F04BF8E0B200F048F8642002F0CD
:104E5000A5FC00F02BF8642002F0A0FC00F010F894
:104E6000492000F03BF8642002F098FCFFF7A8FF0F
:104E70000446FFF789FF00F019F8204610BD000036
:104E800070B5094C0120C4F8B401C4F88C0132207B
:104E900004F5C67402F082FC0025A562322002F0FF
:104EA0007DFC256070BD00000080234270B50A4C77
:104EB0000020C4F8B401322004F5C67402F06EFC80
:104EC00001252560322002F069FCA562BDE8704032
:104ED000322002F063BC0000008023422DE9F04143
:104EE00000241E4E0546A0460127280602D5C6F816
:104EF000B47101E0C6F8B4816806050E322002F0F4
:104F00004DFCC6F88C71322002F048FCC6F88C814A
:104F1000641CE4B2082CE8D3114C206820F4700023
:104F20002060206840F400002060322002F036FC4F
:104F3000C6F88C71322002F031FCD6F8340100B191
:104F40000120C6F88C81216821F47001216021685C
:104F500041F440112160BDE8F0810000008023424F
:104F6000041C014070B50E4605460024FFF788FF7B
:104F70004820FFF7B3FF00B10124642002F00EFCCB
:104F8000280AFFF7ABFF00B10124642002F006FC01
:104F9000E8B2FFF7A3FF00B10124642002F0FEFB9A
:104FA0003046FFF79BFF00B10124FFF77FFF20464B
:104FB00070BD70470CB5002226480092019201682E
:104FC00041F4803101604FF4A063016801F40031C5
:104FD00001910099491C0091019911B900999942D8
:104FE000F3D10168890333D5012101911A490A6877
:104FF00042F010020A600A6822F003020A600A689E
:1050000042F002020A6041684160416841604168C3
:1050100041F480614160416821F47C114160416844
:1050200041F4E8114160016841F08071016001685C
:105030008901FCD5416821F003014160416841F0DC
:10504000020141604168C1F381010229FAD10CBD1E
:1050500001920CBD00100240002002402DE9F041F9
:105060000C46074619461046FBF739F92146FBF76F
:105070003CF9FBF7C7FB03F047F800220E4BFBF7A8
:10508000B0F9FBF703FC06463846FBF7BBFB4FF0D5
:10509000FF32FBF72EFB04460D4631463846FBF740
:1050A00056F9FBF7AFFB22462B46FBF73BFABDE870
:1050B000F041FBF7EBBB00000000F03F4FF0E021B8
:1050C0000428086903D020F004000861704740F00C
:1050D0000400FAE7704700000F4810B5016841F07E
:1050E0000101016041680D4A1140416001680C4AAC
:1050F00011400160016821F480210160416821F4C0
:10510000FE0141604FF41F018160FFF753FF054925
:105110004FF00060086010BD001002400000FFF872
:10512000FFFFF6FE08ED00E070B5048C24F00104EA
:105130000484058B048C4FF6FF7606EA03131343B1
:1051400025F0F3050E4A2B4390420ED00D4A9042B3
:105150000BD0B0F1804F08D00B4A904205D00B4ADB
:10516000904202D00A4A904202D124F0020201E0A9
:1051700024F00A020A4342F001010383018470BD56
:10518000002C0140003401400004004000080040B1
:10519000000C0040F0B5048C24F010040484078B4C
:1051A000048C4FF6FF7527F4734705EA03333B433E
:1051B00005EA02221A43114B05EA011698420ED065
:1051C0000F4B98420BD0B0F1804F08D00D4B984256
:1051D00005D00D4B984202D00C4B984205D124F0DB
:1051E0002001314341F0100104E024F0A0030B43FF
:1051F00043F0100102830184F0BD0000002C014047
:10520000003401400004004000080040000C004051
:1052100010B50A4C0121204600F043F900280AD0BD
:105220000121204600F023F90549D1F8940118B175
:105230000020C1F8940110BD0120FAE700040040ED
:105240000000234270B50E46044688B001210220BA
:10525000FFF774FC01210920FFF788FC0125ADF858
:105260001C5018208DF81F0003208DF81E0007A980
:105270001548FBF7B5FFADF81440ADF810600024F9
:10528000124EADF81640ADF8124004A9304600F0B9
:105290002BFA7020ADF80000ADF80250ADF80640D2
:1052A000ADF808406946304600F0ACF908213046B8
:1052B00000F0E6F90121304600F0CCF8012130463B
:1052C00000F0D8F808B070BD000C014000040040A8
:1052D00010B50C4C0121204600F0E3F801280AD15A
:1052E0000948016988470021204600F0D3F964216C
:1052F000204600F0CBF92046BDE81040012100F027
:10530000B6B800000008004004010020F0B50C46CB
:10531000074687B001210820FFF710FC0121042077
:10532000FFF724FC0220ADF8180003258DF81A5071
:1053300004268DF81B6006A91248FBF751FFADF853
:105340001070ADF80C4000240F4FADF81240ADF8CE
:105350000E4003A9384600F0C7F90120ADF804005B
:10536000ADF80060ADF80240ADF80640ADF8085069
:105370006946384600F0A2F80121384600F07AF874
:1053800007B0F0BD00080140000C004070B51F4C94
:105390001F4D2078000633D40121284600F081F803
:1053A00038B12178480604D5C843800612D0491C7C
:1053B00021700221284600F074F808B321784806CD
:1053C0000FD541F080002070284600F05DF8608025
:1053D000002112E041F0800020704FF6FF706080E5
:1053E000E7E70020207060800146284600F052F96F
:1053F0002078022140F040002070284600F0FCF8A0
:105400002846BDE87040032100F031B83400002088
:10541000000C004070B5094D0121284600F041F80C
:1054200030B1074C07A0617800F028FE00206070C2
:105430002846BDE87040012100F019B80010004076
:10544000340000206672616D653A25646670730DE4
:105450000A0000000029018802D041F0800101E02B
:1054600021F0800101807047C94301827047C94320
:10547000018270470029018802D041F0010101E05A
:1054800021F0010101807047808E7047008F7047C6
:10549000808C704702460020128A0A4200D0012008
:1054A000704702460020138A92890B4202EA0102E9
:1054B00002D0002A00D00120704700002DE9F84FEB
:1054C0000D4604460888434FDFF80CC1DFF80C8115
:1054D000DFF80C914988AA882B894FF0804A48B39D
:1054E000042830D04FF6FF760828934634D0208C1D
:1054F0009E4620F480502084A38B208C06EA013243
:10550000009223F4734306EA0B221A4306EA0E3391
:105510001343BC420AD0644508D0544506D04445E4
:1055200004D04C4502D02F4A944245D120F400507B
:10553000009943E02046FFF7F7FDE9882046BDE8E3
:10554000F84F00F0A9B82046FFF724FEE98820466E
:10555000BDE8F84F00F0A8B8208C20F480702084BB
:10556000B4F81CE0208C06EA031306EA01222EF0B0
:10557000F30E43EA0B0343EA0E030092BC420AD047
:10558000644508D0544506D0444504D04C4502D06B
:10559000144A944203D120F40070009901E020F4F1
:1055A0002060084340F48070A3832084E98820466B
:1055B000BDE8F84F00F084B820F40240084340F4FE
:1055C0008050A3832084E9882046BDE8F84F00F08E
:1055D0007FB80000002C014000340140000400406E
:1055E00000080040000C0040002A828901D00A43D4
:1055F00000E08A4382817047028C22F002020A4353
:105600000284704770B5028C22F480720284028C8E
:105610008388848B0D8824F0730425430E894FF60C
:10562000FF7422F4007204EA062616434A8804EA4C
:1056300002223243104EB04202D0104EB04215D179
:1056400022F400664A8923F4405304EA02223243DA
:1056500022F480668A8804EA022232438E8904EAB0
:1056600006161E43CB8904EA0313334383808583E4
:10567000C9888187028470BD002C0140003401403C
:10568000828B22F008020A4382837047818570472B
:105690008187704781847047028B22F00C0202835D
:1056A000028B0A4302837047028B22F4406202831A
:1056B000028B4FF6FF7303EA01210A43028370470E
:1056C000828B22F00C028283828B0A438283704792
:1056D000828B22F440628283828B4FF6FF7303EA4F
:1056E00001210A438283704730B502881B4C1C4D50
:1056F000A0420DD0A8420BD0B0F1804F08D0194B7A
:10570000984205D0184B984202D0184B984203D1CA
:1057100022F070034A881A43154B984206D0154B65
:10572000984203D022F44073CA881A4302808A88C0
:1057300082850A880285A0420AD0A84208D00E4A73
:10574000904205D00D4A904202D00D4A904201D1BC
:10575000097A01860121818230BD0000002C0140C0
:10576000003401400004004000080040000C0040EC
:10577000001000400014004000400140004401407F
:105780000048014070B500F06FF84FF60B640B4D08
:1057900008E0FFF77DFEA04204D92846BDE870402E
:1057A000FFF776BE04212846FFF774FE002828463E
:1057B000EFD0BDE87040FFF769BE0000000C00406C
:1057C00030B5401E81B285B04FF6FF70FFF79EFDE9
:1057D00000246D46FFF7D6FF25F814000A2001F0DB
:1057E000C3FF641CE4B20A2CF4D300214C1CE0B2C9
:1057F0000BE035F8113035F81020934203D925F825
:10580000112025F81030401CC0B20A28F1D3E1B2B3
:105810000929EBD30021022035F81020401C114447
:10582000C0B289B20828F7D30620B1FBF0F0074CCC
:105830006080618806A000F021FC6088B0F5004F10
:1058400002D3012005B030BD0020FBE72E00002070
:10585000747061645F64656661756C745F76616CB9
:105860003A25640D0A00000038B501210420FFF735
:105870007DF90220ADF8000010208DF80300032010
:105880000F4C8DF8020069462046FBF7A9FC022167
:105890002046FBF726FD052001F066FF094D00219B
:1058A0002846FFF7F7FE05212846FFF7E0FD042113
:1058B0008DF8031069462046FBF792FC38BD0000C6
:1058C00000080140000C00407FB50D460446012150
:1058D0000420FFF733F9ADF804400020ADF8005084
:1058E000104CADF80600ADF8020069462046FFF7FF
:1058F000FBFE012241212046FFF776FE1E218DF896
:105900000C1003218DF80D108DF80E1001208DF86C
:105910000F0003A8FFF79CF801212046FFF7AAFD1E
:105920007FBD0000000800402DE9F041214E308885
:10593000214C800606F1040505D529881F4AA07B65
:105940001154401CA0733088C0061AD51B494FF46F
:10595000807701F20C503A468046FAF736FC184838
:10596000012180F80A13A17B80F80B130020A0739B
:1059700039461248FAF742FC30882888404600F041
:105980007BF93088000612D50A490C3108880006D8
:105990000DD50C4AA079125C2A80401CC0B2A071BF
:1059A000E279904203D1088820F080000880BDE8A9
:1059B000F0810000004C0040900000201C050020F9
:1059C0001C0700202C0F00202DE9F0411F4C2088DF
:1059D0001F4D800605D5A1881E4AE87B1154401C46
:1059E000E8732088C0061AD51A494FF4807601F270
:1059F0000F5032460746FAF7E8FB1748012180F8B6
:105A00000D14E97B80F80E140020E873314611482C
:105A1000FAF7F4FB2088A088384600F02DF920889A
:105A2000000610D5A08900060DD50C49287A095C1E
:105A3000A180401CC0B22872697A884203D1A08933
:105A400020F08000A081BDE8F081000000500040FF
:105A5000900000201C0600201C0700202C100020B5
:105A60002DE9F0411E4E30881E4C800606F10405DB
:105A700005D529881C4AA07A1154401CA072308890
:105A8000C00614D518494FF4807801F5A067424646
:105A9000F81CFAF79AFB01207870A07AB870002001
:105AA000A07241461048FAF7A9FB30882888308850
:105AB000000612D50A490C31088800060DD50B4A9C
:105AC0002078125C2A80401CC0B22070627890421C
:105AD00003D1088820F080000880BDE8F081000034
